:100000000C94B6000C94D3000C94D3000C94D30041
:100010000C94D3000C94D3000C94D3000C94D30014
:100020000C94D3000C94D3000C94D3000C94D30004
:100030000C94D3000C94D3000C94D3000C94D300F4
:100040000C94D3000C94D3000C94D3000C94D300E4
:100050000C94D3000C94D3000C94D3000C94D300D4
:100060000C94D3000C94D3000C94D3000C94D300C4
:100070000C94D3000C94D3000C94D3000C94D300B4
:100080000C94D3000C94D3000C94D3000C94D300A4
:100090000C94D3000C94D3000C94D3000C94D30094
:1000A0000C94D3000C94D3000C94D3000C94D30084
:1000B0000C94D3000C94D3000C94D3000C94D30074
:1000C0000C94D3000C94D3000C94D3000C94D30064
:1000D0000C94D3000C94D3000C94D3000C94D30054
:1000E0000C94D3000C94D3000C94D3000C94D30044
:1000F0000C94D3000C94D3000C94D3000C94D30034
:100100000C94D3000C94D3000C94D3000C94D30023
:100110000C94D3000C94D3000C94D3000C94D30013
:100120000C94D3000C94D3000C94D3000C94D30003
:100130000C94D3000C94D3000C94D3000C94D300F3
:100140000C94D3000C94D3000C94D3000C94D300E3
:100150000C94D3000C94D3000C94D3000C94D300D3
:100160000C94D3000C94D3000C94D30011241FBE24
:10017000CFEFCDBFD7E2DEBF10E2A0E0B0E2EEE10C
:10018000F1E102C005900D92A233B107D9F720E248
:10019000A2E3B0E201C01D92AA33B207E1F70E94C8
:1001A0009E020C948D080C940000CF93DF93CDB782
:1001B000DEB70E94D00180E496E020E436E0F90149
:1001C00024812064FC01248380E496E020E4FC0187
:1001D0002183DF91CF910895CF93DF93CDB7DEB721
:1001E00064E070E080E090E00E940802DF91CF912F
:1001F0000895CF93DF93CDB7DEB764E070E081E080
:1002000090E00E940802DF91CF910895CF93DF9391
:10021000CDB7DEB764E070E082E090E00E940802B3
:10022000DF91CF910895CF93DF93CDB7DEB72A97B3
:10023000CDBFDEBF8D839E838D819E81CC01A0E0EA
:10024000B0E084589340A109B10989839A83AB83B4
:10025000BC8329813A814B815C8188EE93E0DC018B
:100260000E949405DC01CB0189839A83AB83BC8314
:1002700089819A81AB81BC812CE231E040E050E081
:10028000BC01CD010E947505DA01C90189839A83F9
:10029000AB83BC8389819A812A96CDBFDEBFDF9173
:1002A000CF910895CF93DF93CDB7DEB72A97CDBF17
:1002B000DEBF8D839E838D819E81CC01A0E0B0E066
:1002C000815B9340A109B10989839A83AB83BC8385
:1002D00029813A814B815C8188EE93E0DC010E94A8
:1002E0009405DC01CB0189839A83AB83BC8389812C
:1002F0009A81AB81BC8120E233E040E050E0BC0158
:10030000CD010E947505DA01C90189839A83AB8307
:10031000BC8389819A812A96CDBFDEBFDF91CF91C0
:100320000895CF93DF93CDB7DEB72A97CDBFDEBF59
:100330008D839E838D819E81CC01A0E0B0E08056AC
:100340009440A109B10989839A83AB83BC83298135
:100350003A814B815C8188EE93E0DC010E94940538
:10036000DC01CB0189839A83AB83BC8389819A8129
:10037000AB81BC8120E436E040E050E0BC01CD011F
:100380000E947505DA01C90189839A83AB83BC8316
:1003900089819A812A96CDBFDEBFDF91CF910895E2
:1003A000CF93DF93CDB7DEB780E096E021E0FC018C
:1003B000228380E096E022E0FC01228380E096E048
:1003C00024E0FC01228380E096E028E0FC01228307
:1003D00080E096E020E1FC01228380E092E022E0D0
:1003E000FC01228380E092E021E0FC01208380E098
:1003F00092E020E032E0F90121812071FC012183AB
:1004000080E092E022E0FC012483DF91CF91089507
:10041000CF93DF93CDB7DEB72697CDBFDEBF8B83FB
:100420009C836D837E8319821A828B819C818031AB
:100430009105A4F48D819E818F3F2FEF920771F477
:1004400080E092E021E0FC0120A380E092E02B819B
:10045000220F220F220FFC0121A32DC08B819C8132
:100460008031910524F58D819E8188309105FCF4C1
:1004700080E092E020E032E0F90121812061FC017E
:10048000218380E092E023E0FC0120A380E092E061
:100490002B813C81220F331F220F331F220F331F6A
:1004A000322F2D812450232BFC0121A304C080EA8C
:1004B00096E889839A8380E092E020E032E0F901B7
:1004C00020812460FC012083000080E092E0FC0198
:1004D00083A18130D1F780E092E021E0FC0123A3E9
:1004E00080E092E0FC018089918989839A838981E7
:1004F0009A812696CDBFDEBFDF91CF9108958BEC18
:100500008093520088E0809350008091510083FFD7
:10051000FCCF88ED84BF83E0809340000895CF93A3
:10052000DF93CDB7DEB780E496E0FC01148A80E467
:1005300096E0FC01158ADF91CF910895CF93DF9368
:10054000CDB7DEB72E97CDBFDEBF0E947F020E94DF
:10055000F5030E94D0010E94D5000E9490030E94E2
:10056000D0030E948F020E94C90380EA90E020EA33
:1005700030E0F90122812760FC0122838FE390E0C3
:100580002FE330E0F90120812068FC0120830E94E4
:10059000D500109233200E9478030E94420380E02D
:1005A00090E0A8E4B3E489839A83AB83BC8320E022
:1005B00030E04AE755E469817A818B819C810E9411
:1005C000EA04DC01CB018D839E83AF83B88720E0F2
:1005D00030E040E85FE36D817E818F8198850E94E5
:1005E000690488232CF481E090E089879A873FC0D2
:1005F00020E03FEF4FE757E46D817E818F81988542
:100600000E94E60418164CF520E030E040E251E488
:1006100069817A818B819C810E94EA04DC01CB0193
:10062000BC01CD010E946D04DC01CB0189879A8752
:100630000FC080E991E08B879C878B859C85019713
:10064000F1F78B879C8789859A85019789879A8797
:1006500089859A85009769F79ECF6D817E818F810C
:1006600098850E946D04DC01CB0189879A87898572
:100670009A858D879E878D859E850197F1F78D8759
:100680009E8789CFEF92FF920F931F93CF93DF93B3
:10069000CDB7DEB70E9406010E9491017C010E9445
:1006A000F9000E9452018C010E94EC000E9413018B
:1006B0002F2D2F932E2D2F93212F2F93202F2F93DC
:1006C000292F2F938F9383E190E2892F8F9383E1DA
:1006D00090E28F930E94D0058DB79EB70896CDBF4C
:1006E000DEBFDF91CF911F910F91FF90EF900895A2
:1006F000CF93DF93CDB7DEB780910020883021F40F
:1007000081E08093002005C080910020880F8093B5
:100710000020809100200E94B003DF91CF910895C6
:10072000CF93DF93CDB7DEB780E896E02FE0FC01F2
:10073000218380E896E020E4FC01208B80E896E0AD
:1007400020E4FC01218B80E896E020E4FC01228B70
:1007500080E896E020E4FC01238BDF91CF9108959F
:10076000CF93DF931F92CDB7DEB7898389818F70D6
:10077000898380E896E020E836E0F9012481322F71
:10078000307F2981232BFC0124830F90DF91CF91AF
:100790000895CF93DF93CDB7DEB7DF91CF91089562
:1007A000CF93DF93CDB7DEB780E696E021EFFC0173
:1007B000228380E696E029E5FC01208B80E696E026
:1007C00029E5FC01248B80E696E029E5FC01258BD8
:1007D00080E696E029E5FC01268B80E696E029E597
:1007E000FC01278BDF91CF910895CF93DF93CDB795
:1007F000DEB780E696E028E0FC01218380E696E003
:1008000024E0FC01228380EA99E0FC01138280EA63
:1008100099E028E1FC01248380EA99E023E0FC01CF
:10082000258380EA99E027EDFC01268380EA99E0A0
:1008300023E9FC01278381E090E2809336209093A6
:10084000372081E090E28093342090933520DF912F
:10085000CF910895CF93DF9300D01F92CDB7DEB72D
:1008600089836A837B8380EA99E02981FC01208364
:10087000000080EA99E0FC018181882F90E080747B
:1008800099270097B1F380EA99E020E4FC012183E5
:1008900080E090E02396CDBFDEBFDF91CF91089539
:1008A000CF93DF9300D0CDB7DEB789839A83000062
:1008B00080EA99E0FC0181818823D4F780EA99E0FD
:1008C000FC018081882F90E00F900F90DF91CF91F5
:1008D00008952FD008F481E0089557D088F09F57ED
:1008E00090F0B92F9927B751A0F0D1F0660F771F7C
:1008F000881F991F1AF0BA95C9F712C0B13081F05C
:100900005ED0B1E008955BC0672F782F8827B85F6D
:1009100039F0B93FCCF3869577956795B395D9F7BC
:100920003EF490958095709561957F4F8F4F9F4FC6
:100930000895990F0008550FAA0BE0E8FEEF161670
:100940001706E807F907C0F012161306E407F507C3
:1009500098F0621B730B840B950B39F40A2661F037
:10096000232B242B252B21F408950A2609F4A140DA
:10097000A6958FEF811D811D089557FD9058440F56
:10098000551F59F05F3F71F04795880F97FB991FEE
:1009900061F09F3F79F087950895121613061406AB
:1009A000551FF2CF4695F1DF08C016161706180638
:1009B000991FF1CF86957105610508940895E89413
:1009C000BB2766277727CB0197F90895B2DF08F494
:1009D0008FEF08950BD078C069D028F06ED018F052
:1009E000952309F05AC05FC01124EACFC6DFA0F3F7
:1009F000959FD1F3950F50E0551F629FF001729FB4
:100A0000BB27F00DB11D639FAA27F00DB11DAA1FD2
:100A1000649F6627B00DA11D661F829F2227B00D1F
:100A2000A11D621F739FB00DA11D621F839FA00DAA
:100A3000611D221F749F3327A00D611D231F849FFA
:100A4000600D211D822F762F6A2F11249F57504051
:100A50008AF0E1F088234AF0EE0FFF1FBB1F661FEC
:100A6000771F881F91505040A9F79E3F510570F0A5
:100A700014C0A6CF5F3FECF3983EDCF386957795E4
:100A80006795B795F795E7959F5FC1F7FE2B880FA0
:100A9000911D9695879597F9089597F99F6780E836
:100AA00070E060E008959FEF80EC089500240A94C0
:100AB0001616170618060906089500240A94121639
:100AC0001306140605060895092E0394000C11F46C
:100AD000882352F0BB0F40F4BF2B11F460FF04C019
:100AE0006F5F7F4F8F4F9F4F0895052E97FB1EF42A
:100AF00000940E948C0557FD07D00E949F0507FCBB
:100B000003D04EF40C948C0550954095309521956A
:100B10003F4F4F4F5F4F0895909580957095619529
:100B20007F4F8F4F9F4F08950E94C105A59F900D45
:100B3000B49F900DA49F800D911D11240895A1E2F2
:100B40001A2EAA1BBB1BFD010DC0AA1FBB1FEE1F47
:100B5000FF1FA217B307E407F50720F0A21BB30B92
:100B6000E40BF50B661F771F881F991F1A9469F70E
:100B700060957095809590959B01AC01BD01CF016A
:100B80000895A29FB001B39FC001A39F700D811D66
:100B90001124911DB29F700D811D1124911D089586
:100BA000A0E0B0E0E6EDF5E00C946C08FE013596AF
:100BB00061917191AF0180913620909137200E9410
:100BC000E405E2E00C948508ACE0B0E0EAEEF5E084
:100BD0000C945C087C016B018A01FC01168217826F
:100BE000838181FFBDC1CE0101964C01F701938144
:100BF000F60193FD859193FF81916F01882309F49C
:100C0000ABC1853239F493FD859193FF81916F01DA
:100C1000853229F4B70190E00E94CC07E7CF512C30
:100C2000312C20E02032A0F48B3269F030F4803295
:100C300059F0833269F420612CC08D3239F0803351
:100C400039F4216026C02260246023C0286021C0BE
:100C500027FD27C030ED380F3A3078F426FF06C064
:100C6000FAE05F9E300D1124532E13C08AE0389EA7
:100C7000300D1124332E20620CC08E3221F426FD5B
:100C80006BC1206406C08C3611F4206802C088361F
:100C900041F4F60193FD859193FF81916F018111DC
:100CA000C1CF982F9F7D9554933028F40C5F1F4F30
:100CB000FFE3F9830DC0833631F0833771F083355C
:100CC00009F05BC022C0F801808189830E5F1F4F4D
:100CD00044244394512C540115C03801F2E06F0EA6
:100CE000711CF801A080B18026FF03C0652D70E063
:100CF00002C06FEF7FEFC5012C870E94C1072C0156
:100D000083012C852F77222E17C03801F2E06F0E59
:100D1000711CF801A080B18026FF03C0652D70E032
:100D200002C06FEF7FEFC5012C870E94B6072C0130
:100D30002C852068222E830123FC1BC0832D90E08C
:100D400048165906B0F4B70180E290E00E94CC0743
:100D50003A94F4CFF50127FC859127FE81915F013C
:100D6000B70190E00E94CC0731103A94F1E04F1A9D
:100D700051084114510471F7E5C0843611F08936E9
:100D800039F5F80127FF07C0608171818281938165
:100D90000C5F1F4F08C060817181882777FD8095A7
:100DA000982F0E5F1F4F2F76B22E97FF09C0909598
:100DB0008095709561957F4F8F4F9F4F2068B22E21
:100DC0002AE030E0A4010E94FE07A82EA81844C023
:100DD000853729F42F7EB22E2AE030E025C0F22F8D
:100DE000F97FBF2E8F36C1F018F4883579F0B4C082
:100DF000803719F0883721F0AFC02F2F2061B22E35
:100E0000B4FE0DC08B2D8460B82E09C024FF0AC02B
:100E10009F2F9660B92E06C028E030E005C020E183
:100E200030E002C020E132E0F801B7FE07C0608187
:100E30007181828193810C5F1F4F06C06081718137
:100E400080E090E00E5F1F4FA4010E94FE07A82ED5
:100E5000A818FB2DFF77BF2EB6FE0BC02B2D2E7FC3
:100E6000A51450F4B4FE0AC0B2FC08C02B2D2E7E8F
:100E700005C07A2C2B2D03C07A2C01C0752C24FFC1
:100E80000DC0FE01EA0DF11D8081803311F4297E31
:100E900009C022FF06C07394739404C0822F867821
:100EA00009F0739423FD13C020FF06C05A2C73145D
:100EB00018F4530C5718732C731468F4B70180E2BC
:100EC00090E02C870E94CC0773942C85F5CF731487
:100ED00010F4371801C0312C24FF12C0B70180E391
:100EE00090E02C870E94CC072C8522FF17C021FFA1
:100EF00003C088E590E002C088E790E0B7010CC02D
:100F0000822F867859F021FD02C080E201C08BE279
:100F100027FD8DE2B70190E00E94CC07A51438F4BC
:100F2000B70180E390E00E94CC075A94F7CFAA94CF
:100F3000F401EA0DF11D8081B70190E00E94CC0719
:100F4000A110F5CF332009F451CEB70180E290E033
:100F50000E94CC073A94F6CFF7018681978102C0B0
:100F60008FEF9FEF2C96E2E10C947508FC01059041
:100F7000615070400110D8F7809590958E0F9F1F9B
:100F80000895FC016150704001900110D8F78095E0
:100F900090958E0F9F1F08950F931F93CF93DF930C
:100FA000182F092FEB018B8181FD03C08FEF9FEF7D
:100FB00020C082FF10C04E815F812C813D8142178D
:100FC00053077CF4E881F9819F012F5F3F4F28830D
:100FD0003983108306C0E885F985812F0995892B0F
:100FE00029F72E813F812F5F3F4F2E833F83812F33
:100FF000902FDF91CF911F910F910895FA01AA27A9
:10100000283051F1203181F1E8946F936E7F6E5F4B
:101010007F4F8F4F9F4FAF4FB1E03ED0B4E03CD0F9
:10102000670F781F891F9A1FA11D680F791F8A1FDC
:10103000911DA11D6A0F711D811D911DA11D20D043
:1010400009F468943F912AE0269F11243019305DFD
:101050003193DEF6CF010895462F4770405D4193EE
:10106000B3E00FD0C9F7F6CF462F4F70405D4A333B
:1010700018F0495D31FD4052419302D0A9F7EACF03
:10108000B4E0A6959795879577956795BA95C9F732
:1010900000976105710508959B01AC010A2E069425
:1010A0005795479537952795BA95C9F7620F731FDE
:1010B000841F951FA01D08952F923F924F925F921B
:1010C0006F927F928F929F92AF92BF92CF92DF9258
:1010D000EF92FF920F931F93CF93DF93CDB7DEB7BD
:1010E000CA1BDB0BCDBFDEBF09942A88398848882C
:1010F0005F846E847D848C849B84AA84B984C88434
:10110000DF80EE80FD800C811B81AA81B981CE0F2A
:0E111000D11DCDBFDEBFED010895F894FFCFD5
:10111E000800000002000000002A04500400002510
:10112E00642000244143435F5F20783A2025642EDB
:10113E0020793A2025642E207A3A2025642E200D1F
:02114E000A0095
:00000001FF
